S01A00002E2E2F464548524F424F5454455354434F44452E7331399B
S32D0000C00000000020A9E5000005E9000005E9000005E9000005E9000005E90000000000000000000000000000BE
S32D0000C0280000000005E9000005E900000000000005E9000005E9000005E9000005E9000005E9000005E900007A
S32D0000C05005E9000005E9000005E9000005E9000005E9000005E9000005E9000005E9000005E9000005E9000076
S32D0000C07805E9000005E9000005E9000005E9000005E9000005E9000005E9000005E9000005E9000005E900004E
S32D0000C0A005E9000005E9000005E9000005E9000005E9000005E9000005E9000005E9000005E9000005E9000026
S32D0000C0C805E9000005E9000005E9000005E9000005E9000005E9000005E9000005E9000005E9000005E90000FE
S32D0000C0F005E900007D53010005E9000005E9000005E9000005E9000005E9000005E9000005E9000005E90000F3
S32D0000C11805E9000005E9000005E9000005E9000005E9000005E9000005E9000005E9000005E9000005E90000AD
S32D0000C14005E9000005E9000005E9000005E90000A51D010005E9000005E9000005E9000005E9000005E90000B0
S32D0000C16805E9000005E9000005E9000005E9000005E9000005E9000005E9000005E9000005E9000005E900005D
S32D0000C19005E9000005E9000005E9000005180100591601002D17010055E90000DD18010005E9000005E90000D4
S32D0000C1B805E9000005E9000005E9000005E9000005E9000005E9000005E9000005E9000005E9000005E900000D
S32D0000C41081F0004102E000BF83F0004330B54FEA41044FEA430594EA050F08BF90EA020F1FBF54EA000C55EAC6
S32D0000C438020C7FEA645C7FEA655C00F0E2804FEA5454D4EB5555B8BF6D420CDD2C4480EA020281EA030382EA0F
S32D0000C460000083EA010180EA020281EA0303362D88BF30BD11F0004F4FEA01314FF4801C4CEA113102D0404263
S32D0000C48861EB410113F0004F4FEA03334CEA133302D0524263EB430394EA050F00F0A780A4F10104D5F1200E8A
S32D0000C4B00DDB02FA0EFC22FA05F2801841F1000103FA0EF2801843FA05F359410EE0A5F120050EF1200E012A2D
S32D0000C4D803FA0EFC28BF4CF0020C43FA05F3C01851EBE37101F0004507D54FF0000EDCF1000C7EEB00006EEB67
S32D0000C5000101B1F5801F1BD3B1F5001F0CD349085FEA30004FEA3C0C04F101044FEA445212F5800F80F09A8000
S32D0000C528BCF1004F08BF5FEA500C50F1000041EB045141EA050130BD5FEA4C0C404141EB010111F4801FA4F114
S32D0000C5500104E9D191F0000F04BF01460020B1FA81F308BF2033A3F10B03B3F120020CDA0C3208DD02F1140C87
S32D0000C578C2F10C0201FA0CF021FA02F10CE002F11402D8BFC2F1200C01FA02F120FA0CFCDCBF41EA0C019040B1
S32D0000C5A0E41AA2BF01EB0451294330BD6FEA04041F3C1CDA0C340EDC04F11404C4F1200220FA04F001FA02F3B6
S32D0000C5C840EA030021FA04F345EA030130BDC4F10C04C4F1200220FA02F001FA04F340EA0300294630BD21FAA8
S32D0000C5F004F0294630BD94F0000F83F4801306BF81F480110134013D4EE77FEA645C18BF7FEA655C29D094EA1C
S32D0000C618050F08BF90EA020F05D054EA000C04BF1946104630BD91EA030F1EBF0021002030BD5FEA545C05D1A3
S32D0000C6404000494128BF41F0004130BD14F580043CBF01F5801130BD01F0004545F0FE4141F470014FF0000031
S32D0000C66830BD7FEA645C1ABF194610467FEA655C1CBF0B46024650EA013406BF52EA033591EA030F41F40021D7
S32D0000C69030BD00BF90F0000F04BF0021704730B54FF4806404F132044FF000054FF0000150E700BF90F0000F66
S32D0000C6B804BF0021704730B54FF4806404F1320410F0004548BF40424FF000013EE700BF42004FEAE2014FEAF9
S32D0000C6E031014FEA02701FBF12F07F4393F07F4F81F06051704792F0000F14BF93F07F4F704730B54FF460741B
S32D0000C70801F0004521F0004120E700BF50EA010208BF704730B54FF000050AE050EA010208BF704730B511F046
S32D0000C730004502D5404261EB41014FF4806404F132045FEA915C3FF4DCAE4FF003025FEADC0C18BF03325FEAA0
S32D0000C758DC0C18BF033202EBDC02C2F1200300FA03FC20FA02F001FA03FE40EA0E0021FA02F11444C1E600BF19
S32D0000C78070B54FF0FF0C4CF4E06C1CEA11541DBF1CEA135594EA0C0F95EA0C0F00F0DEF82C4481EA030621EAF3
S32D0000C7A84C5123EA4C5350EA013518BF52EA033541F4801143F4801338D0A0FB02CE4FF00005E1FB02E506F05F
S32D0000C7D00042E0FB03E54FF00006E1FB03569CF0000F18BF4EF0010EA4F1FF04B6F5007F64F5407404D25FEA0F
S32D0000C7F84E0E6D4146EB060642EAC62141EA55514FEAC52040EA5E504FEACE2EB4F1FD0C88BFBCF5E06F1ED8D2
S32D0000C820BEF1004F08BF5FEA500E50F1000041EB045170BD06F0004646EA010140EA020081EA0301B4EB5C0487
S32D0000C848C2BFD4EB0C0541EA045170BD41F480114FF0000E013C00F3AB8014F1360FDEBF002001F0004170BDF0
S32D0000C870C4F10004203C35DA0C341BDC04F11404C4F1200500FA05F320FA04F001FA05F240EA020001F0004207
S32D0000C89821F0004110EBD37021FA04F642EB06015EEA430E08BF20EAD37070BDC4F10C04C4F1200500FA04F32F
S32D0000C8C020FA05F001FA04F240EA020001F0004110EBD37041F100015EEA430E08BF20EAD37070BDC4F12005C7
S32D0000C8E800FA05F24EEA020E20FA04F301FA05F243EA020321FA04F001F0004121FA04F220EA020000EBD37028
S32D0000C9105EEA430E08BF20EAD37070BD94F0000F0FD101F00046400041EB010111F4801F08BF013CF7D041EA6D
S32D0000C938060195F0000F18BF704703F00046520043EB030313F4801F08BF013DF7D043EA0603704794EA0C0FF1
S32D0000C9600CEA135518BF95EA0C0F0CD050EA410618BF52EA4306D1D181EA030101F000414FF0000070BD50EA38
S32D0000C988410606BF1046194652EA430619D094EA0C0F02D150EA013613D195EA0C0F05D152EA03361CBF10467B
S32D0000C9B019460AD181EA030101F0004141F0FE4141F470014FF0000070BD41F0FE4141F4780170BD70B54FF04D
S32D0000C9D8FF0C4CF4E06C1CEA11541DBF1CEA135594EA0C0F95EA0C0F00F0A7F8A4EB050481EA030E52EA03359B
S32D0000CA004FEA013100F088804FEA03334FF0805545EA131343EA12634FEA022245EA111545EA10654FEA002676
S32D0000CA280EF000419D4208BF964244F1FD0404F5407402D25B084FEA3202B61A65EB03055B084FEA32024FF461
S32D0000CA5080104FF4002CB6EB020E75EB030E22BFB61A754640EA0C005B084FEA3202B6EB020E75EB030E22BF22
S32D0000CA78B61A754640EA5C005B084FEA3202B6EB020E75EB030E22BFB61A754640EA9C005B084FEA3202B6EBEA
S32D0000CAA0020E75EB030E22BFB61A754640EADC0055EA060E18D04FEA051545EA16754FEA06164FEAC30343EAAC
S32D0000CAC852734FEAC2025FEA1C1CC0D111F4801F0BD141EA00014FF000004FF0004CB6E711F4801F04BF0143AE
S32D0000CAF00020B4F1FD0C88BFBCF5E06F3FF6AFAEB5EB030C04BFB6EB020C5FEA500C50F1000041EB045170BDBC
S32D0000CB180EF0004E4EEA113114EB5C04C2BFD4EB0C0541EA045170BD41F480114FF0000E013C90E645EA060EC3
S32D0000CB408DE60CEA135594EA0C0F08BF95EA0C0F3FF43BAF94EA0C0F0AD150EA01347FF434AF95EA0C0F7FF499
S32D0000CB6825AF104619462CE795EA0C0F06D152EA03353FF4FDAE1046194622E750EA410618BF52EA43067FF432
S32D0000CB90C5AE50EA41047FF40DAF52EA43057FF4EBAE12E74FF0FF3C06E000BF4FF0010C02E000BF4FF0010C75
S32D0000CBB84DF804CD4FEA410C7FEA6C5C4FEA430C18BF7FEA6C5C1BD001B050EA410C0CBF52EA430C91EA030FEC
S32D0000CBE002BF90EA020F0020704710F1000F91EA030F58BF994208BF90422CBFD8176FEAE37040F0010070476E
S32D0000CC084FEA410C7FEA6C5C02D150EA013C07D14FEA430C7FEA6C5CD6D152EA033CD3D05DF8040B704700BFCD
S32D0000CC308446104662468C461946634600E000BF01B5FFF7B7FF002848BF10F1000F01BD4DF808EDFFF7F4FF13
S32D0000CC580CBF012000205DF808FB00BF4DF808EDFFF7EAFF34BF012000205DF808FB00BF4DF808EDFFF7E0FF18
S32D0000CC8094BF012000205DF808FB00BF4DF808EDFFF7CEFF94BF012000205DF808FB00BF4DF808EDFFF7C4FF40
S32D0000CCA834BF012000205DF808FB00BF4FEA410212F5001215D211D56FF47873B3EB625212D94FEAC12343F0D6
S32D0000CCD0004343EA505311F0004F23FA02F018BF404270474FF00000704750EA013005D111F0004008BF6FF016
S32D0000CCF8004070474FF00000704700BF4A0011D212F5001211D20DD56FF47873B3EB62520ED44FEAC12343F085
S32D0000CD20004343EA505323FA02F070474FF00000704750EA013002D14FF0FF3070474FF0000070474FEA410241
S32D0000CD48B2F1E04324BFB3F5001CDCF1FE5C0DD901F0004C4FEAC0024CEA5070B2F1004F40EB830008BF20F09E
S32D0000CD700100704711F0804F21D113F13872BCBF01F00040704741F480114FEA5252C2F11802C2F1200C10FAB1
S32D0000CD980CF320FA02F018BF40F001004FEAC1234FEAD32303FA0CFC40EA0C0023FA02F34FEA4303CCE77FEA26
S32D0000CDC0625307D150EA01331EBF4FF0FE4040F44000704701F0004040F0FE4040F40000704700BF80F00040CC
S32D0000CDE802E000BF81F0004142001FBF5FEA410392EA030F7FEA226C7FEA236C6AD04FEA1262D2EB1363C1BF06
S32D0000CE10D218414048404140B8BF5B42192B88BF704710F0004F40F4000020F07F4018BF404211F0004F41F4FA
S32D0000CE38000121F07F4118BF494292EA030F3FD0A2F1010241FA03FC10EB0C00C3F1200301FA03F100F000432B
S32D0000CE6002D5494260EB4000B0F5000F13D3B0F1807F06D340084FEA310102F10102FE2A51D2B1F1004F40EB94
S32D0000CE88C25008BF20F0010040EA03007047490040EB000010F4000FA2F10102EDD1B0FA80FCACF1080CB2EB5F
S32D0000CEB00C0200FA0CF0AABF00EBC25052421843BCBFD0401843704792F0000F81F4000106BF80F400000132EB
S32D0000CED8013BB5E74FEA41037FEA226C18BF7FEA236C21D092EA030F04D092F0000F08BF0846704790EA010FD7
S32D0000CF001CBF0020704712F07F4F04D1400028BF40F00040704712F100723CBF00F50000704700F0004343F0DC
S32D0000CF28FE4040F4000070477FEA226216BF08467FEA23630146420206BF5FEA412390EA010F40F480007047C1
S32D0000CF504FF0000304E000BF10F0004348BF40425FEA000C08BF704743F0964301464FF000001CE050EA010264
S32D0000CF7808BF70474FF000030AE000BF50EA010208BF704711F0004302D5404261EB41015FEA010C02BF84465B
S32D0000CFA00146002043F0B64308BFA3F18053A3F50003BCFA8CF2083AA3EBC25310DB01FA02FC634400FA02FC6B
S32D0000CFC8C2F12002BCF1004F20FA02F243EB020008BF20F00100704702F1200201FA02FCC2F1200250EA4C0034
S32D0000CFF021FA02F243EB020008BF20EADC7070474FF0FF0C1CEAD0521EBF1CEAD15392EA0C0F93EA0C0F6FD019
S32D0000D0181A4480EA010C400218BF5FEA41211ED04FF0006343EA501043EA5111A0FB01310CF00040B1F5000FE7
S32D0000D0403EBF490041EAD3715B0040EA010062F17F02FD2A1DD8B3F1004F40EBC25008BF20F00100704790F058
S32D0000D068000F0CF0004C08BF49024CEA502040EA51207F3AC2BFD2F1FF0340EAC250704740F400004FF0000388
S32D0000D090013A5DDC12F1190FDCBF00F000407047C2F10002410021FA02F1C2F1200200FA02FC5FEA310040F1D5
S32D0000D0B8000053EA4C0308BF20EADC70704792F0000F00F0004C02BF400010F4000F013AF9D040EA0C0093F04C
S32D0000D0E0000F01F0004C02BF490011F4000F013BF9D041EA0C018FE70CEAD15392EA0C0F18BF93EA0C0F0AD00B
S32D0000D10830F0004C18BF31F0004CD8D180EA010000F00040704790F0000F17BF90F0004F084691F0000F91F0BB
S32D0000D130004F14D092EA0C0F01D142020FD193EA0C0F03D14B0218BF084608D180EA010000F0004040F0FE4051
S32D0000D15840F40000704740F0FE4040F4400070474FF0FF0C1CEAD0521EBF1CEAD15392EA0C0F93EA0C0F69D044
S32D0000D180A2EB030280EA010C49024FEA402037D04FF0805343EA111143EA10130CF000408B4238BF5B0042F14E
S32D0000D1A87D024FF4000C8B4224BF5B1A40EA0C00B3EB510F24BFA3EB510340EA5C00B3EB910F24BFA3EB9103A4
S32D0000D1D040EA9C00B3EBD10F24BFA3EBD10340EADC001B0118BF5FEA1C1CE0D1FD2A3FF650AF8B4240EBC25018
S32D0000D1F808BF20F0010070470CF0004C4CEA50207F32C2BFD2F1FF0340EAC250704740F400004FF00003013AF1
S32D0000D22037E792F0000F00F0004C02BF400010F4000F013AF9D040EA0C0093F0000F01F0004C02BF490011F4C9
S32D0000D248000F013BF9D041EA0C0195E70CEAD15392EA0C0F08D142027FF47DAF93EA0C0F7FF470AF084676E7AE
S32D0000D27093EA0C0F04D14B023FF44CAF08466EE730F0004C18BF31F0004CCAD130F000427FF45CAF31F0004376
S32D0000D2987FF43CAF5FE700BF4FF0FF3C06E000BF4FF0010C02E000BF4FF0010C4DF804CD4FEA40024FEA41039F
S32D0000D2C07FEA226C18BF7FEA236C11D001B052EA530C18BF90EA010F58BFB2EB030088BFC81738BF6FEAE1706E
S32D0000D2E818BF40F0010070477FEA226C02D15FEA402C05D17FEA236CE4D15FEA412CE1D05DF8040B704700BF16
S32D0000D310844608466146FFE70FB5FFF7C9FF002848BF10F1000F0FBD4DF808EDFFF7F4FF0CBF012000205DF839
S32D0000D33808FB00BF4DF808EDFFF7EAFF34BF012000205DF808FB00BF4DF808EDFFF7E0FF94BF012000205DF8A9
S32D0000D36008FB00BF4DF808EDFFF7D2FF94BF012000205DF808FB00BF4DF808EDFFF7C8FF34BF012000205DF8B1
S32D0000D38808FB00BF4FEA4002B2F1FE4F0FD34FF09E03B3EB12620DD94FEA002343F0004310F0004F23FA02F060
S32D0000D3B018BF404270474FF00000704712F1610F01D1420205D110F0004008BF6FF0004070474FF00000704797
S32D0000D3D880B483B000AF78607B6823F00043184607F10C07BD4680BC704700BFB0B584B000AF786003F0C4FE0D
S32D0000D40002460B4610461946FFF79CFC0346FB60F8689349FFF7ECFC0346BB6041F24440C1F6FF704FF0801153
S32D0000D42805F06EFC41F24440C1F6FF7047F63851C0F2010105F022FF41F24440C1F6FF7047F65051C0F201019B
S32D0000D45005F04AFE41F2AC40C1F6FF7009F04CFA034641F24440C1F6FF70194605F01EFFDFE003F089FE0246D5
S32D0000D4780B4610461946FFF761FC0346FB6041F2AC40C1F6FF7009F033FA04467868FFF75FFD03462046194694
S32D0000D4A0FFF7A4FC03461846FFF796FF03464FF00102144618466B49FFF75EFF0346002B02D14FF000031C4661
S32D0000D4C8E3B2002B19D041F2AC40C1F6FF7009F00FFA03464FF00102144618466049FFF747FF0346002B02D1D7
S32D0000D4F04FF000031C46E3B2002B02D04FF0010301E04FF00003002B00F0A58041F2AC40C1F6FF7009F0F0F90B
S32D0000D51805467868FFF71CFD03464FF00102144628461946FFF706FF0346002B02D14FF000031C46E3B2002B53
S32D0000D54022D041F22810C1F6FF70484901F0DCFA41F23010C1F6FF70454901F0D5FA4FF0640003F0C9FD41F26C
S32D0000D5683010C1F6FF7001F07BFA41F22810C1F6FF7001F075FA4FF0FA0003F0B9FD3CE041F2AC40C1F6FF7095
S32D0000D59009F0B2F905467868FFF7DEFC03464FF00102144628461946FFF7E6FE0346002B02D14FF000031C4657
S32D0000D5B8E3B2002B21D041F22810C1F6FF702A4901F09EFA41F23010C1F6FF70254901F097FA4FF0640003F0E8
S32D0000D5E08BFD41F23010C1F6FF7001F03DFA41F22810C1F6FF7001F037FA4FF0FA0003F07BFD41F24440C1F60F
S32D0000D608FF7047F65051C0F2010105F069FD41F2AC40C1F6FF7009F06BF9034641F24440C1F6FF70194605F07C
S32D0000D6303DFE4FF001031C46F868B968FFF77EFE0346002B02D14FF000031C46E3B2002B7FF40FAF00E000BF7E
S32D0000D65807F11007BD46B0BD0000A0400000803F000080BF00002041000020C10000000090B585B000AF41F2A9
S32D0000D6804440C1F6FF704FF0000105F007FB41F24440C1F6FF706FF07F4105F05DFB41F24440C1F6FF7047F638
S32D0000D6A85C51C0F2010105F0E9FD00BF07F104023B4641F24440C1F6FF7011461A4605F0DBFB034683F00103BB
S32D0000D6D0DBB2002BEED100BF07F104023B4641F24440C1F6FF7011461A4605F0C9FB0346002BF1D141F244403D
S32D0000D6F8C1F6FF704FF47F4105F002FB41F24440C1F6FF704FF0000105F022FB41F24440C1F6FF7047F67851D7
S32D0000D720C0F2010105F0AEFD03F02EFD02460B4610461946FFF706FB0346FB6003F024FD02460B46104619461E
S32D0000D74827A3D3E90023FEF765FE02460B4610461946FFF7F3FA0346BB6019E003F010FD02460B4610461946D6
S32D0000D770FFF7E8FA0346FB604FF001031C46F868B968FFF7F9FD0346002B02D14FF000031C46E3B2002B1FD162
S32D0000D79841F22410C1F6FF7004F03EF903461846FEF796FF02460B464FF001010C46104619460DA3D3E900230A
S32D0000D7C0FFF76EFA0346002B02D14FF000031C46E3B2002BC6D100E000BF07F11407BD4690BD00BFAFF30080B8
S32D0000D7E800000000008041409A9999999999D93FB0B598B000AF786039603868FFF7E8FD03461846FEF764FF1C
S32D0000D81002460B461046194655A3D3E90023FEF7AFFF02460B4610461946FFF743FA03463B6478685249FFF748
S32D0000D83897FC034618465149FFF7DEFB0346FB6341F25C13C1F6FF731B68002B58DD41F24440C1F6FF7047F6B0
S32D0000D860AC51C0F2010105F03FFC41F24440C1F6FF70F96B05F01AFD4FF001031C4638684149FFF779FD0346E8
S32D0000D888002B02D14FF000031C46E3B2002B0AD041F24440C1F6FF7047F6BC51C0F2010105F0ECFC24E04FF03B
S32D0000D8B001031C4638683449FFF740FD0346002B02D14FF000031C46E3B2002B0AD041F24440C1F6FF7047F6F5
S32D0000D8D8CC51C0F2010105F0D1FC09E041F24440C1F6FF7047F6DC51C0F2010105F0C6FC4FF000004FF07E51A7
S32D0000D90001F5F00103F014FCFB6BBB63BB6B7B6341F23C10C1F6FF7004F05CF841F23810C1F6FF7004F056F8B7
S32D0000D92803F02EFC02460B4610461946FFF706FA0346FB6541F23810C1F6FF7004F032F80346BB6541F23C1020
S32D0000D950C1F6FF7004F02AF803467B650A4BFB64FB6C3B6504A1D1E9000103F0E1FB55E21F85EB51B8DE40402D
S32D0000D978FCA9F1D24D62503F0000C842000061430000000041F23810C1F6FF7004F00AF803463B6341F23C1030
S32D0000D9A0C1F6FF7004F002F80346FB6203F0ECFB02460B4610461946FFF7C4F90346BB62B86AF96DFFF712FAD4
S32D0000D9C803467B623A6BBB6DD31A1846FEF76EFE02460B4610461946A7A3D3E90023FEF7F5FF02460B4614463F
S32D0000D9F01D46786AFEF770FE02460B46104619464FF000024FF0804303F59C03FEF7E2FF02460B4620462946F5
S32D0000DA18FEF7DCFF02460B4610461946FFF78EF903463B62FA6A7B6DD31A1846FEF73EFE02460B461046194649
S32D0000DA408FA3D3E90023FEF7C5FF02460B4614461D46786AFEF740FE02460B46104619464FF000024FF08043F2
S32D0000DA6803F59C03FEF7B2FF02460B4620462946FEF7ACFF02460B4610461946FFF75EF90346FB61F86B396AFF
S32D0000DA90FFF7ACF90346BB61B869796AFFF7B0FA0346386D1946FFF7A3F903463B65B869B96CFFF79BF90346E3
S32D0000DAB81846796AFFF754FB03467B6140F20043C1F6FF731B681846B969FFF795FA03461C4640F20443C1F694
S32D0000DAE0FF731B681846396DFFF78AFA034620461946FFF77DF903461C4641F25813C1F6FF731B6818467969F6
S32D0000DB08FFF77AFA034620461946FFF76DF903467B63F86BF969FFF765F903463B613869796AFFF769FA0346D0
S32D0000DB30F86C1946FFF75CF90346FB643869796CFFF754F903461846796AFFF70DFB0346FB6040F20043C1F6F0
S32D0000DB58FF731B6818463969FFF74EFA03461C4640F20443C1F6FF731B681846F96CFFF743FA03462046194698
S32D0000DB80FFF736F903461C4641F25813C1F6FF731B681846F968FFF733FA034620461946FFF726F90346BB63F1
S32D0000DBA83868FFF715FC034638681946FFF7D8FA03461846FEF78CFD04460D467B6B83F000431846FEF784FD66
S32D0000DBD002460B46104619464FF000024FF0804303F50033FEF7F6FE02460B4620462946FEF7C6FD02460B46C3
S32D0000DBF810461946FFF7A2F8034641F22810C1F6FF70194600F07CFF3868FFF7E1FB034638681946FFF7A4FAC8
S32D0000DC2003461846FEF758FD04460D46BB6B83F000431846FEF750FD02460B46104619464FF000024FF080433B
S32D0000DC4803F50033FEF7C2FE02460B4620462946FEF792FD02460B4610461946FFF76EF8034641F23010C1F6BF
S32D0000DC70FF70194600F048FF41F25C1304E000BF0000000000E07340C1F6FF731B68012B40F3B68041F24440B1
S32D0000DC98C1F6FF7041F23C41C0F2DC0105F058F8B8696E49FFF7A8F903461846FFF76AFB024646F26763C6F241
S32D0000DCC0666383FB02134FEAA3014FEAE273CB1A41F24440C1F6FF70194605F033FA41F24440C1F6FF7047F612
S32D0000DCE8F851C0F2010105F0FBF941F24440C1F6FF704FF47F4105F02BF8386D5749FFF77BF903461846FFF7E4
S32D0000DD103DFB024646F26763C6F2666383FB02134FEAA3014FEAE273CB1A41F24440C1F6FF70194605F006FACE
S32D0000DD3841F24440C1F6FF7047F6F851C0F2010105F0CEF941F24440C1F6FF704FF47F0104F0FEFF386941492E
S32D0000DD60FFF74EF903461846FFF710FB024646F26763C6F2666383FB02134FEAA3014FEAE273CB1A41F244404B
S32D0000DD88C1F6FF70194605F0D9F941F24440C1F6FF7047F6F851C0F2010105F0A1F941F24440C1F6FF704FF45B
S32D0000DDB0004104F0D1FFF86C2A49FFF721F903461846FFF7E3FA024646F26763C6F2666383FB02134FEAA301A4
S32D0000DDD84FEAE273CB1A41F24440C1F6FF70194605F0ACF941F24440C1F6FF7047F6FC51C0F2010105F074F957
S32D0000DE00BB6AFB653B6BBB65BB69BB64FB6A7B653B697B644FF00A0003F06EF941F23810C1F6FF7003F0C2FDA8
S32D0000DE2802463B6C9A42ACBF00230123DBB2002B7FF4A8AD41F23010C1F6FF7000F010FE41F22810C1F6FF70A7
S32D0000DE5000F00AFE4FF0640003F04EF907F16007BD46B0BD0000204190B585B000AF786039603868FEF71EFC56
S32D0000DE7802460B46104619464FA3D3E90023FEF77BFC02460B4610461946FEF70FFF0346FB6041F23C10C1F6C6
S32D0000DEA0FF7003F097FD41F23810C1F6FF7003F091FD7B68002B42D141F24440C1F6FF7047F60061C0F20101EC
S32D0000DEC805F0DCF941F22810C1F6FF703C4900F017FE41F23010C1F6FF703A4900F010FE00BF41F23810C1F63C
S32D0000DEF0FF7003F05BFD044641F23C10C1F6FF7003F054FD0346E3184FEAD372D3184FEA63031A46FB689A422C
S32D0000DF18ACBF00230123DBB2002BE2D141F23010C1F6FF7000F09CFD41F22810C1F6FF7000F096FD36E07B688F
S32D0000DF40012B33D141F24440C1F6FF7047F61061C0F2010105F096F941F22810C1F6FF701A4900F0D1FD41F2DB
S32D0000DF683010C1F6FF70164900F0CAFD00BF41F23810C1F6FF7003F015FD0246FB689A42ACBF00230123DBB2E4
S32D0000DF90002BF0D141F23010C1F6FF7000F064FD41F22810C1F6FF7000F05EFD4FF0640003F0A2F807F114076E
S32D0000DFB8BD4690BDAFF30080333333333333014000009041000090C198B500AF41F24440C1F6FF7047F620619D
S32D0000DFE0C0F2010105F04EF941F22410C1F6FF7003F016FD03461846FEF76EFB02460B464FF001010C46104609
S32D0000E008194647A3D3E90023FEF728FE0346002B02D14FF000031C46E3B2002B4ED041F24440C1F6FF704FF4BE
S32D0000E0307F0104F069FE4FF000004FF02E01FFF713FF3B483B49FFF7D7FB4FF000004FF02E01FFF709FF36483A
S32D0000E0583749FFF7CDFB41F22810C1F6FF70354900F04EFD41F23010C1F6FF70314900F047FD4FF000004FF04D
S32D0000E080804101F5B01103F053F829482C49FFF7B3FB4FF001004FF05E01FFF7E5FE24482849FFF7A9FB4FF0C5
S32D0000E0A800004FF05C01FFF7DBFE1F482049FFF79FFB4FF05D00FFF799F92FE041F24440C1F6FF704FF0FF0130
S32D0000E0D004F01AFE16481C49FFF78EFB4FF000004FF05C01FFF7C0FE11481849FFF784FB41F22810C1F6FF7085
S32D0000E0F8104900F005FD41F23010C1F6FF700D4900F0FEFC4FF000004FF0804101F5B01103F00AF84FF05D004F
S32D0000E120FFF768F998BD00BF333333333333D33F0000F0410000803F000040C00000C841000080400000A04089
S32D0000E1480000B840000080C080B500AF41F24440C1F6FF7047F63461C0F2010105F08EF841F24C10C1F6FF70FA
S32D0000E170B94904F01DF8B948B949FFF73DFB41F24440C1F6FF7047F64461C0F2010105F079F84FF001004FF0ED
S32D0000E1982D01FFF765FEAF48B049FFF729FB41F24440C1F6FF7047F65861C0F2010105F065F8FFF709FF41F2BE
S32D0000E1C04440C1F6FF7047F66461C0F2010105F059F8A248A449FFF70FFB41F24440C1F6FF7047F67861C0F20F
S32D0000E1E8010105F04BF84FF000004FF07E5101F5E00102F099FF4FF05A00FFF7F7F899489949FFF7F5FA4FF0BC
S32D0000E2105800FFF7EFF891489649FFF7EDFA41F24440C1F6FF7047F68861C0F2010105F029F88A489049FFF7A8
S32D0000E238DFFA4FF000004FF05A01FFF711FE85488C49FFF7D5FA4FF000004FF07E5101F5E00102F069FF41F2E9
S32D0000E2604C10C1F6FF70864903F0A2FF4FF000004FF0804102F05CFF41F24440C1F6FF7047F6A061C0F2010150
S32D0000E28804F0FCFF73487D49FFF7B2FA4FF000004FF00501FFF7E4FD6E487949FFF7A8FA41F24C10C1F6FF7036
S32D0000E2B0694903F07DFF4FF000004FF07E5101F5E00102F035FF41F24440C1F6FF7047F6B461C0F2010104F0FE
S32D0000E2D8D5FF4FF000004FF00501FFF7C1FD61486849FFF785FA41F24C10C1F6FF70664903F05AFF4FF000004E
S32D0000E3004FF02801FFF7B0FD41F24C10C1F6FF70514903F04DFF4FF000004FF01101FFF7A3FD41F24440C1F6C2
S32D0000E328FF7047F6C861C0F2010104F0A7FF4FF000004FF07E5101F5C00102F0F5FE49485249FFF755FA4FF00B
S32D0000E35000004FF07E5101F5C00102F0E9FE4FF000004FF02301FFF77FFD4FF48670FFF741F841F24440C1F617
S32D0000E378FF7047F6D861C0F2010104F07FFF39484249FFF735FA4FF000004FF07E5101F5E00102F0C9FE40F22C
S32D0000E3A01110FFF727F84FF0FA0002F0A5FE2F483949FFF721FA4FF000004FF07E5101F5E00102F0B5FE4FF435
S32D0000E3C88770FFF713F841F24440C1F6FF7047F6E461C0F2010104F051FF4FF001004FF02D01FFF73DFD1B4898
S32D0000E3F02A49FFF701FA4FF000004FF07E5101F5E00102F095FE41F24440C1F6FF7047F6F461C0F2010104F0DB
S32D0000E41835FF41F24010C1F6FF701F4903F0C4FE4FF0FA0002F064FE4FF09600FEF7DEFF08480849FFF7DCF93C
S32D0000E44041F24440C1F6FF7047F60471C0F2010104F018FF80BD00BF00002A430000F0410000C03F0000404146
S32D0000E4680000DC410000A0410000004100008841CDCC0CBF000040C000008C420000A0400000B0400000E0405C
S32D0000E4900000C842000060410000B041000020C10000000080B500AF41F2AC40C1F6FF7007F052FDFFF7E0F8A4
S32D0000E4B8FFF74AFE4FF00003184680BD80B582B000AF786039607B68012B3ED13A684FF6FF739A4239D141F204
S32D0000E4E02410C1F6FF704FF0080103F087FA41F22810C1F6FF704FF00001184A00F05CFA41F23010C1F6FF70E6
S32D0000E5084FF00101134A00F053FA41F23810C1F6FF704FF0000102F08DFE41F23C10C1F6FF704FF0010102F0D4
S32D0000E53085FE41F24010C1F6FF704FF0070103F017FE41F24C10C1F6FF704FF0000103F00FFE07F10807BD4643
S32D0000E55880BD00BF0000104180B500AF4FF001004FF6FF71FFF7AAFF80BD00BF80B500AF41F21072C1F6FF7213
S32D0000E58041F22413C1F6FF73D31A194641F22413C1F6FF731A460B4610464FF000011A4608F03FFB80BD00BF26
S32D0000E5A809F0B4FB00F0B0F9FFF7E0FF09F086FB09F022FB09F0BAFB00F00CF84FF0000041F26011C1F6FF71F3
S32D0000E5D0FFF768FF0346184608F0FEFA80B500AF4FF4E043C4F204034FF4E042C4F2040202F5805202F138020B
S32D0000E5F8126842F4785203F5805303F138031A6000F02EF900F094F841F29033C1F6FF734FF058021A6041F20F
S32D0000E6209033C1F6FF731B684FF47A7202FB03F241F28C33C1F6FF731A6041F28C33C1F6FF731B681A464FF466
S32D0000E648E043C4F2040303F5825303F104031B6803F070634FEA136303F10103B2FBF3F31A4641F29433C1F668
S32D0000E670FF731A604FF4E043C4F204034FF4E042C4F2040202F5805202F13C02126842F0225203F5805303F173
S32D0000E6983C031A604FF4E043C4F204034FF4E042C4F2040202F5805202F13002126842F0006203F5805303F19C
S32D0000E6C030031A604FF45043C4F203034FF480721A614FF0640002F0A3FB4FF45043C4F203034FF45042C4F2ED
S32D0000E6E80302526922F010025A614FF45043C4F203034FF000021A604FF45043C4F203034FF010025A6103F087
S32D0000E710B9FA03F061FB41F28830C1F6FF7002F003FC41F24440C1F6FF7004F005F941F2883002F0E1FC80BD11
S32D0000E73880B400AF4FF48043C4F206034FF000025A704FF48043C4F206034FF098021A704FF48043C4F2060313
S32D0000E7609B79DBB203F01003002B0CBF00230123DBB2002BF0D14FF48043C4F206039B79DBB203F00C034FEA8D
S32D0000E7889303022B0CBF00230123DBB2002BEED14FF48043C4F206034FF018021A714FF48043C4F206034FF06A
S32D0000E7B000025A714FF4E043C4F2040303F5825303F104034FF00002C0F213121A604FF48043C4F206034FF0ED
S32D0000E7D854025A7100BF4FF48043C4F206039B79DBB203F02003002B14BF00230123DBB2002BF0D100BF4FF4F7
S32D0000E8008043C4F206039B79DBB203F04003002B14BF00230123DBB2002BF0D14FF48043C4F206034FF4804209
S32D0000E828C4F206021278D2B202F03F02D2B21A704FF48043C4F206039B79DBB203F00C034FEA9303032B0CBF85
S32D0000E85000230123DBB2002BEED14FF000031846BD4680BC704700BF80B400AF4FF44043C4F204034FF48072EC
S32D0000E8785A634FF2C003C4F20F034FF2C002C4F20F02526942F400525A614FF2C003C4F20F034FF2C002C4F29C
S32D0000E8A00F02126842F400521A604FF44043C4F2040340F20312C0F20A021A634FF46143CEF200034FF4614228
S32D0000E8C8CEF20002D2F8882142F08062C3F888214FF46143CEF200034FF46142CEF20002926842F080629A601B
S32D0000E8F0BD4680BC704700BF80B483B000AF7860FEE700BF80B400AF00BEBD4680BC704780B400AF4FF0E022F8
S32D0000E9184CF20003C0F20003C2F8083D4FF40053C4F205034CF22052DA814FF40053C4F205034DF62812DA8151
S32D0000E9404FF40053C4F205034FF0D2021A80BD4680BC704780B500AF4FF44043C4F20403D3F8A03003F48053E6
S32D0000E968002B0CBF00230123DBB2002B1FD04FF44043C4F204034FF44042C4F20402D2F8A02022F48052C3F86C
S32D0000E990A02041F2CC40C1F6FF7008F0A3F84FF2C003C4F20F034FF2C002C4F20F02126822F400521A6080BD72
S32D0000E9B890B585B000AFF8600B467A60FB72FB68FA7A1A71FB684FF000025A714FF001031C4678682049FEF764
S32D0000E9E0CBFC0346002B02D14FF000031C46E3B2002B02D01A4B7B6011E04FF001031C4678681849FEF7A4FC19
S32D0000EA080346002B02D14FF000031C46E3B2002B01D0124B7B607868FDF75AFE02460B46104619460AA3D3E949
S32D0000EA300023FDF7A5FE02460B4610461946FEF781F90246FB681A60FB68184607F11407BD4690BDAFF30080D6
S32D0000EA58ABAAAAAAAAAA2040000040410000803F80B582B000AF78607B685B79002B10D07B684FF000025A7154
S32D0000EA807B681B7941F28830C1F6FF7019464FF000024FF01E0302F091FA07F10807BD4680BD00BF80B584B0F4
S32D0000EAA800AF786039603B687F2B03DD4FF07F03FB7309E03B6813F1800F03DA4FF08003FB7301E03B68FB73A6
S32D0000EAD07B685B79FA7B9A420FD07B68FA7B5A717B681A79FB7B41F28830C1F6FF7011461A464FF01E0302F008
S32D0000EAF861FA07F11007BD4680BD00BF00000000B0B584B000AF786039604FF001031C4638684D49FEF70EFCF4
S32D0000EB200346002B02D14FF000031C46E3B2002B02D0474B3B6011E04FF001031C4638684449FEF719FC034607
S32D0000EB48002B02D14FF000031C46E3B2002B01D03E4B3B603868FDF7BBFD04460D467B681B681846FDF7B4FDF6
S32D0000EB7002460B46104619464FF000024FF0804303F5B203FDF726FF02460B4620462946FDF7F6FD02460B4632
S32D0000EB9810461946FEF7D2F803463B604FF001031C4638682A49FEF7D9FB0346002B02D14FF000031C46E3B2F6
S32D0000EBC0002B14D03868FDF787FD02460B46104619461DA3D3E90023FDF7D2FD02460B4610461946FEF766F8AF
S32D0000EBE80346FB6022E03868FDF772FD02460B46104619464FF000024FF0804303F5C003FDF7BAFD02460B46C6
S32D0000EC10104619464FF000024FF0804303F5B203FDF7D8FE02460B4610461946FEF742F80346FB607868F96805
S32D0000EC38FFF734FF07F11007BD46B0BDAFF3008052B81E85EB51F43F0000C8C20000C84200000000AFF3008012
S32D0000EC6080B485B000AF02460B46FA71BB71BB79002B07D141F26413C1F6FF734FF000021A7006E041F26413D9
S32D0000EC88C1F6FF734FF001021A704FF03803FB7341F26413C1F6FF731A78FB7B1343FB734FF4C043C4F20603DD
S32D0000ECB04FF4C042C4F206029278D2B242F01002D2B29A704FF4C043C4F206034FF4C042C4F206029278D2B23D
S32D0000ECD842F02002D2B29A704FF4C043C4F20603FA7B1A7107F11407BD4680BC704700BF80B483B000AF4FF00A
S32D0000ED0001037B6004E000BF7B6803F101037B607B68312BCCBF00230123DBB2002BF2D107F10C07BD4680BCD7
S32D0000ED28704700BF80B582B000AF02460B46FA71BB7141F26513C1F6FF731B7818464FF00001FFF789FF4FF43B
S32D0000ED50C043C4F20603DB78DBB203F00203002B14BF00230123DBB2002BF0D14FF4C043C4F206034FF4C042F3
S32D0000ED78C4F20602D278D2B242F00202D2B2DA704FF4C043C4F20603FA791A714FF4C043C4F20603DB78DBB2F5
S32D0000EDA003F00203002B14BF00230123DBB2002BF0D14FF4C043C4F206034FF4C042C4F20602D278D2B242F087
S32D0000EDC80202D2B2DA704FF4C043C4F20603BA791A714FF4C043C4F20603DB78DBB203F00203002B14BF00238A
S32D0000EDF00123DBB2002BF0D14FF4C043C4F206034FF4C042C4F20602D278D2B242F00202D2B2DA704FF4C04338
S32D0000EE18C4F206034FF4C042C4F206029278D2B222F02002D2B29A704FF4C043C4F206034FF4C042C4F20602B2
S32D0000EE409278D2B222F01002D2B29A70FFF754FF07F10807BD4680BD80B582B000AF0346FB71FB79184600F047
S32D0000EE686BF807F10807BD4680BD00BF80B582B000AF02460B46FA71BB7100F039F8FB794FEA4303DBB21846CE
S32D0000EE90FFF7E2FFBB791846FFF7DEFF00F03EF807F10807BD4680BD80B500AF4FF0FF0000F046F803461846B4
S32D0000EEB880BD00BF80B584B000AF0346FB7100F017F8FB794FEA4303DBB243F00103DBB2DBB21846FFF7BCFF84
S32D0000EEE0FFF7E2FF0346FB7300F018F8FB7B184607F11007BD4680BD80B400AF4FF24003C4F20F034FF24002A1
S32D0000EF08C4F20F02926842F480129A60BD4680BC704700BF80B400AF4FF24003C4F20F034FF24002C4F20F022A
S32D0000EF30526842F480125A60BD4680BC704700BF80B485B000AF0346FB714FF00003BB7303E0FB7B03F1010334
S32D0000EF58FB734FF44043C4F20A03DB6A4FF00003002BF2D14FF44043C4F20A034FF44042C4F20A02D26A42F0A1
S32D0000EF800042DA624FF44043C4F20A03FA795A6300BF4FF44043C4F20A03DB6A03F40033002B14BF0023012330
S32D0000EFA8DBB2002BF1D14FF44043C4F20A039B6BBB73BB7B184607F11407BD4680BC704780B582B000AF4FF40E
S32D0000EFD0E043C4F204034FF4E042C4F2040202F5805202F13002126842F4805203F5805303F130031A604FF4F3
S32D0000EFF82043C4F204034FF480721A654FF24003C4F20F034FF24002C4F20F02526942F480125A61FFF77EFFD0
S32D0000F0204FF42043C4F204034FF400725A654FF42043C4F204034FF400729A654FF42043C4F204034FF40072BC
S32D0000F048DA654FF44043C4F20A034FF44062C8F200021A604FF44043C4F20A034FF00502C3F60062DA604FF054
S32D0000F07000037B6007E04FF0FF00FFF7EDFE7B6803F101037B607B68092BCCBF00230123DBB2002BEFD104A1D2
S32D0000F098D1E9000102F048F807F10807BD4680BD9A9999999999B93F90B486B000AFF860B9607A60FA684FF46E
S32D0000F0C02043C4F206039A4214D14FF4E043C4F204034FF4E042C4F2040202F5805202F13402126842F4806277
S32D0000F0E803F5805303F134031A6083E0FA684FF43043C4F206039A4214D14FF4E043C4F204034FF4E042C4F251
S32D0000F110040202F5805202F13402126842F4006203F5805303F134031A6067E0FA684FF44043C4F206039A424D
S32D0000F13814D14FF4E043C4F204034FF4E042C4F2040202F5805202F13402126842F4805203F5805303F1340316
S32D0000F1601A604BE0FA684FF45043C4F206039A4214D14FF4E043C4F204034FF4E042C4F2040202F5805202F124
S32D0000F1883402126842F4005203F5805303F134031A602FE0FA684FF42043C4F20E039A4214D14FF4E043C4F2F6
S32D0000F1B004034FF4E042C4F2040202F5805202F12802126842F4806203F5805303F128031A6013E04FF4E043D4
S32D0000F1D8C4F204034FF4E042C4F2040202F5805202F12802126842F4006203F5805303F128031A60FB68DB7819
S32D0000F200DBB223F00C03DAB2FB68DA70FB684FF000029A70BB684FF47A7202FB03F27B684FEA031392FBF3F361
S32D0000F2289CB2FB681B78DBB223F01F03FB75234603F4F8534FEA2323DBB203F01F03DAB2FB7D1343DAB2FB682D
S32D0000F2501A70E2B2FB685A70BB684FF4FA4202FB03F27B684FEA031392FBF3F39AB2234619464FEAC121CB1AF8
S32D0000F2784FEA43139BB2D3189CB2FB689B7ADBB223F01F03FB75E3B203F01F03DAB2FB7D1343DAB2FB689A72AA
S32D0000F2A0FB68DB78DBB243F00C03DAB2FB68DA7007F11807BD4690BC704700BF80B483B000AF786000BF7B6816
S32D0000F2C81B79DBB203F02003002B14BF00230123DBB2002BF3D17B68DB79DBB2184607F10C07BD4680BC7047FD
S32D0000F2F080B483B000AF78600B46FB7000BF7B681B79DBB2DBB26FEA0303DBB24FEAD313DBB2002BF3D17B688C
S32D0000F318FA78DA7107F10C07BD4680BC704700BF80B487B000AFF860B9607A60FB687B6107E0BB68DAB27B692C
S32D0000F3401A707B6903F101037B617B68002B0CBF00230123DBB27A6802F1FF327A60002BEBD107F11C07BD46CB
S32D0000F36880BC704780B584B000AF786039607B681B6BFB60FA683B689A4264D07B681B79002B43D07B685A78B8
S32D0000F3907B6803F1340310461946FA684FF0010301F0ACFB0346002B0CBF00230123DBB2002B02D04FF00103FC
S32D0000F3B84BE07B684FF000021A717B685A6A7B681B6AD218FB689A4220D97B68DB78FB7214E07B681B6AFA68BB
S32D0000F3E0D318FB607B685A787B6803F1340310461946FA684FF0010301F080FBFB7A03F1FF33FB72FB7A012B87
S32D0000F40894BF00230123DBB2002BE2D13B68002B19D07B685A787B6803F13403104619463A684FF0010301F0CC
S32D0000F43057FA0346002B0CBF00230123DBB2002B02D04FF0010304E07B683A681A634FF00003184607F1100775
S32D0000F458BD4680BD80B584B000AF786078684FF00001FFF77FFF0346FB73FB7B002B40F0AE807B681B78032B68
S32D0000F48040F095807B685B79002B00F090807B684FF000021A637B6803F1340318464FF000014FF40072FFF73F
S32D0000F4A83FFF7B684FF0550283F832227B684FF0AA0283F833227B684FF0520283F834207B684FF0520283F8DC
S32D0000F4D035207B684FF0610283F836207B684FF0410283F837207B684FF0720283F818227B684FF0720283F8D0
S32D0000F4F819227B684FF0410283F81A227B684FF0610283F81B227B681B69DAB27B6883F81C227B681B699BB20F
S32D0000F5204FEA2323DAB27B6883F81D227B681B694FEA1343DAB27B6883F81E227B681B694FEA1363DAB27B6870
S32D0000F54883F81F227B68DB68DAB27B6883F820227B68DB689BB24FEA2323DAB27B6883F821227B68DB684FEA09
S32D0000F5701343DAB27B6883F822227B68DB684FEA1363DAB27B6883F823227B6859787B6803F134027B685B697D
S32D0000F598084611461A464FF0010301F0ABFA7B684FF000025A717B685B7818464FF000014FF0000201F084FB73
S32D0000F5C00346002B0CBF00230123DBB2002B02D04FF00103FB73FB7B184607F11007BD4680BD00BF80B582B013
S32D0000F5E800AF78600B467B807B68002B08D07B681B78002B04D07B68DB887A889A4202D04FF009030FE07B68B4
S32D0000F6105B78184601F0ECFB034603F00103DBB2002B02D04FF0030301E04FF00003184607F10807BD4680BDEC
S32D0000F63880B586B000AF78607B681A687B689B8810461946FFF7CAFF0346FB75FB7D002B40F0C8807B689B7908
S32D0000F66003F02003002B00F0C1807B689B7903F04003002B20D07B681B6859787B6803F128027B689B69084655
S32D0000F68811461A464FF0010301F034FA0346002B0CBF00230123DBB2002B02D04FF00103A1E07B689B7923F05D
S32D0000F6B04003DAB27B689A717B681A687B68DB6910461946FFF752FE0346FB75FB7D002B40F08C807B681B6AE8
S32D0000F6D83B613B6903F10B033A6902F10B02127842F02002D2B21A703B6903F11C037A68D268D2B21A703B69AE
S32D0000F70003F11D037A68D26892B24FEA2222D2B21A703B6903F11E037A68D2684FEA1242D2B21A703B6903F1D4
S32D0000F7281F037A68D2684FEA1262D2B21A703B6903F11A037A681269D2B21A703B6903F11B037A68126992B243
S32D0000F7504FEA2222D2B21A703B6903F114037A6812694FEA1242D2B21A703B6903F115037A6812694FEA1242BF
S32D0000F77892B24FEA2222D2B21A704FF00003FB603B6903F11603FA68D2B21A703B6903F11703FA6892B24FEA45
S32D0000F7A02222D2B21A703B6903F11803FA684FEA1242D2B21A703B6903F11903FA684FEA1262D2B21A707B6885
S32D0000F7C89B7923F02003DAB27B689A717B681B684FF001021A717B681B681846FFF73AFE0346FB75FB7D18469B
S32D0000F7F007F11807BD4680BD80B584B000AF78607868FFF719FF0346FB73FB7B002B03D17B684FF000021A60EC
S32D0000F818FB7B184607F11007BD4680BD80B588B000AF786039604FF080033B614FF00F03FB604FF0FF337B61BB
S32D0000F8404FF00203FB612AE04FF00103BB611AE0FB69BA6902FB03F33A6802FB03F27B68D31ABB60BB68002B50
S32D0000F86809DBBA687B699A4205D2BB687B61FB693B61BB69FB60BB6903F10103BB61BB69102B8CBF002301232E
S32D0000F890DBB2002BDCD1FB694FEA4303FB61FB69B3F5807F8CBF00230123DBB2002BCBD14FF48053C4F20B03DB
S32D0000F8B84FF48052C4F20B02D26A22F00802DA624FF48053C4F20B03DB6A1A464FF00F03CFF6F0731340BB614F
S32D0000F8E04FF48053C4F20B033A694FEA52024FEA02224FEA02424FEA1242F96801F1FF314FEA0111C9B21143EC
S32D0000F908BA690A4342F46022DA6203E04FF00A0001F0EEFB4FF48053C4F20B035B6A03F00803002B14BF0023A9
S32D0000F9300123DBB2002BEDD14FF48053C4F20B034FF48052C4F20B02D26A42F00802DA624FF48053C4F20B03CF
S32D0000F9584FF48052C4F20B02126B42F480121A6307F12007BD4680BD80B582B000AF786039607B684FF00002DD
S32D0000F9801A604FF48053C4F20B034FF40042C0F20012DA624FF48053C4F20B03DB6A03F08073002B0CBF002362
S32D0000F9A80123DBB2002BF1D14FF48053C4F20B034FF00002C3F8C0204FF48053C4F20B034FF481325A604FF410
S32D0000F9D08053C4F20B034FF028029A624FF48053C4F20B034FF001125A643B689B6818464CF66041C0F2050184
S32D0000F9F8FFF714FF4FF48053C4F20B035B6A03F00303002B0CBF00230123DBB2002BF1D14FF45043C4F20403F6
S32D0000FA2040F243421A604FF45043C4F2040340F243425A604FF45043C4F204034FF488629A604FF45043C4F23D
S32D0000FA48040340F24342DA604FF45043C4F2040340F243421A614FF45043C4F2040340F243425A614FF4E04368
S32D0000FA70C4F204034FF4E042C4F2040202F5805202F13002126842F4003203F5805303F130031A604FF4805338
S32D0000FA98C4F20B034FF6FF721A634FF48053C4F20B034FF0B302C0F27F025A634FF48053C4F20B034FF480529C
S32D0000FAC0C4F20B02D26A42F00062DA624FF48053C4F20B03DB6A03F00063002B0CBF00230123DBB2002BF1D11D
S32D0000FAE84FF48053C4F20B035B6A03F48033002B0CBF00230123DBB2002B03D07B684FF001021A604FF480532A
S32D0000FB10C4F20B034FF48052C4F20B02126B42F080021A634FF00003184607F10807BD4680BD00BF80B400AFF4
S32D0000FB384FF48053C4F20B035B6A1A4640F207331340002B0CBF00230123DBB21846BD4680BC704780B485B05A
S32D0000FB6000AF78604FF48053C4F20B031B6B1A467B681340FB60FB68002B14BF00230123DBB2002BEED1FB681D
S32D0000FB88184607F11407BD4680BC704780B584B000AF78607B681B7803F03F0248F20823C0F2010353F8223096
S32D0000FBB0FB60FB68002B06D17B681B78002B02D04FF0010330E14FF48053C4F20B034FF48052C4F20B02126B71
S32D0000FBD842F080021A634FF48053C4F20B035B6A03F00103DBB2002BF5D14FF48053C4F20B037A6852689A604A
S32D0000FC00FB6823F44003FB607B685B784FEA835303F44003FA681343FB607B685B78022B03D1FB6843F4001348
S32D0000FC28FB607B685B78042B16D1FB6803F44033B3F5003F08D1FB6823F44033FB60FB6843F44033FB6007E063
S32D0000FC50FB6823F44033FB60FB6843F40033FB604FF48053C4F20B034FF48052C4F20B0252684FEA02424FEAF4
S32D0000FC7812425A607B68DB68002B32D0FB6803F44033B3F5403F03D0FB6843F40013FB607B681B7A002B03D0B8
S32D0000FCA0FB6843F01003FB607B68DB68012B03D9FB6843F02003FB607B68DB68B3F1FF3F13D04FF48053C4F239
S32D0000FCC80B034FF48052C4F20B02526811467A68D2684FEA02420A435A60FB6843F00203FB604FF48053C4F2B5
S32D0000FCF00B034FF000021A604FF48053C4F20B03FA68DA604FF00100C0F20E00FFF726FF0346012B0CBF002329
S32D0000FD180123DBB2002B10D04FF48053C4F20B034FF48052C4F20B02126B42F4702242F001021A634FF0010315
S32D0000FD4072E04FF48053C4F20B031B6B03F08003002B0CBF00230123DBB2002B0ED04FF48053C4F20B034FF47D
S32D0000FD688052C4F20B02126B42F001121A634FF0010355E04FF48053C4F20B031B6B03F48033002B0CBF0023FE
S32D0000FD900123DBB2002B0ED04FF48053C4F20B034FF48052C4F20B02126B42F001121A634FF0FF3338E0FB68AE
S32D0000FDB803F44033002B25D04FF48053C4F20B031B691A467B681A61FB6803F44033B3F5803F17D14FF4805345
S32D0000FDE0C4F20B035B691A467B685A614FF48053C4F20B039B691A467B689A614FF48053C4F20B03DB691A46D5
S32D0000FE087B68DA614FF48053C4F20B034FF48052C4F20B02126B42F001021A634FF00003184607F11007BD461B
S32D0000FE3080BD00BF80B592B000AF786039604FF00003FB633B68BB6341F27C13C1F6FF737B637B6B002B03D102
S32D0000FE5840F6012300F0A0BC41F28033C1F6FF733B633B6B002B03D140F60B2300F094BC3B6B1B68FB62FB6AF5
S32D0000FE80002B03D140F60B2300F08ABC7B6841F20432934200F0388241F2043293421BD841F20132934238D07C
S32D0000FEA841F20132934207D8032B00F03D84092B00F0298400F066BC41F20232934200F0128241F20332934253
S32D0000FED000F0BE8300F05ABC41F20732934200F04B8341F2073293420BD841F20532934200F0348241F206325A
S32D0000FEF8934200F0108300F045BC41F20832934200F0B68241F20932934200F0C48200F039BC786B48F2FC11A1
S32D0000FF20C0F20101FFF724FD0346FB63FB6B002B40F030844FF0000387F847304FF0000387F82B304FF0000336
S32D0000FF4887F82A304FF0000387F829304FF0000387F846304FF0000387F828304FF000033B724FF000037B722A
S32D0000FF704FF00003FB604FF000033B744FF000037B6107F108031846FFF704FE0346002B0CBF00230123DBB24B
S32D0000FF98002B03D04FF00103FB63FCE340F24C4001F0A6F84FF008033B724FF000037B724FF4D573FB604FF025
S32D0000FFC000033B744FF000037B6107F108031846FFF7E0FD03463B643B6C002B0BD1BA69FB689A4203D04FF005
S32D0000FFE80103FB63D7E34FF0010387F846304FF0010387F8283097F82830002B00F0C6804FF037033B724FF0D0
S32D0001001000037B724FF00003FB604FF000033B744FF000037B6107F108031846FFF7B2FD03463B643B6C002B65
S32D0001003803D04FF00103FB63ADE34FF069033B724FF000037B724FF00003FB604FF000033B744FF000037B6162
S32D0001006007F108031846FFF795FD0346002B0CBF00230123DBB2002B03D04FF00103FB638DE3BB6903F44013F8
S32D00010088002B00F083804FF000033B644FF00A0001F02EF83B6C03F101033B644FF037033B724FF000037B7257
S32D000100B04FF00003FB604FF000033B744FF000037B6107F108031846FFF764FD0346002B0CBF00230123DBB2AA
S32D000100D8002B03D04FF00103FB6336E04FF069033B724FF000037B7297F84630002B05D04FF00003C4F230038D
S32D00010100FB6002E04FF44013FB604FF000033B744FF000037B6107F108031846FFF73AFD0346002B0CBF0023A3
S32D000101280123DBB2002B03D04FF00103FB630CE0BB69002B05DB3B6C632B02D84FF0010301E04FF00003002B9D
S32D00010150A0D1FB6B002B40F01F833B6C632B04D94FF0000387F8463014E04FF0010387F8473097F84630002B06
S32D000101780CD04FF0000387F84630BB6903F08043002B03D04FF0010387F8463097F82A30002B03D07B6B4FF029
S32D000101A007021A6097F82930002B03D07B6B4FF008021A6097F82B30002B03D07B6B4FF004021A6097F847308B
S32D000101C8002B0BD07B6B4FF002021A6097F84630002B03D07B6B4FF003021A6097F82B30002B0FD097F84730BE
S32D000101F0002B0BD07B6B4FF005021A6097F84630002B03D07B6B4FF006021A604FF45043C4F204034FF00002B6
S32D000102181A604FF45043C4F204034FF000025A604FF45043C4F204034FF000029A604FF45043C4F204034FF00F
S32D000102400002DA604FF45043C4F204034FF000021A614FF45043C4F204034FF000025A61FB6A9A68FB6A5B68E6
S32D0001026810461946FFF7DAFA4FF45043C4F2040340F243421A604FF45043C4F2040340F243425A604FF450434A
S32D00010290C4F204034FF488629A604FF45043C4F2040340F24342DA604FF45043C4F2040340F243421A614FF4CF
S32D000102B85043C4F2040340F243425A614FF4E043C4F204034FF4E042C4F2040202F5805202F13002126842F473
S32D000102E0003203F5805303F130031A6057E2B86BFFF750FC03463B643B6C002B00F04E824FF00203FB6349E26C
S32D00010308BB6B002B03D14FF00C03FB6343E24FF48053C4F20B03DB6A03F47F434FEA13234FEA43033B644FF428
S32D000103308053C4F20B03DB6A03F0F0034FEA131303F101023B6C02FB03F33B64FB6A9A683B6CB2FBF3F2BB6B87
S32D000103581A6020E2BB6B002B03D14FF00C03FB6319E2BB6B1B68002B03D14FF00C03FB6311E2FFF7DBFB0346D2
S32D00010380002B14BF00230123DBB2002B70D04FF45043C4F204034FF000021A604FF45043C4F204034FF00002EF
S32D000103A85A604FF45043C4F204034FF000029A604FF45043C4F204034FF00002DA604FF45043C4F204034FF0BE
S32D000103D000021A614FF45043C4F204034FF000025A61FB6A9A68BB6B1B6810461946FFF719FA4FF45043C4F298
S32D000103F8040340F243421A604FF45043C4F2040340F243425A604FF45043C4F204034FF488629A604FF450430A
S32D00010420C4F2040340F24342DA604FF45043C4F2040340F243421A614FF45043C4F2040340F243425A614FF4F2
S32D00010448E043C4F204034FF4E042C4F2040202F5805202F13002126842F4003203F5805303F130031A6096E1D1
S32D0001047040F60A23FB6392E1BB6B002B03D14FF00C03FB638BE14FF48053C4F20B035B684FEAC3434FEAD343C1
S32D00010498BA6B13607FE1BB6B002B03D14FF00C03FB6378E1FFF742FB0346002B14BF00230123DBB2002B2AD0A0
S32D000104C0BB6B1A6840F6FF739A4203D94FF00C03FB6364E14FF48053C4F20B034FF48052C4F20B02526822F492
S32D000104E8FE5222F03F025A604FF48053C4F20B034FF48052C4F20B0252681146BA6B12684FEAC2424FEAD2429C
S32D000105100A435A6043E140F60A23FB633FE1BB6B002B03D14FF00C03FB6338E14FF48053C4F20B039B6A03F0F4
S32D0001053806034FEA53033B643B6C002B04D1BB6B4FF000021A6026E13B6C012B04D1BB6B4FF001021A601EE145
S32D000105603B6C102B04D1BB6B4FF002021A6016E14FF00503FB6312E1BB6B002B03D14FF00C03FB630BE1FFF790
S32D00010588D5FA0346002B14BF00230123DBB2002B56D0BB6B1B68002B16D14FF48053C4F20B034FF48052C4F2A9
S32D000105B00B02926A22F006029A624FF48053C4F20B034FF48052C4F20B02926A9A62E6E0BB6B1B68012B18D1CF
S32D000105D84FF48053C4F20B034FF48052C4F20B02926A22F006029A624FF48053C4F20B034FF48052C4F20B027E
S32D00010600926A42F002029A62C9E0BB6B1B68022B16D14FF48053C4F20B034FF48052C4F20B02926A22F006026F
S32D000106289A624FF48053C4F20B034FF48052C4F20B02926A9A62AEE04FF00503FB63AAE040F60A23FB63A6E0F9
S32D00010650BB6B002B03D14FF00C03FB639FE04FF48053C4F20B034FF48052C4F20B02D26A42F00062DA624FF42A
S32D000106788053C4F20B03DB6A03F00063002B0CBF00230123DBB2002BF1D14FF48053C4F20B031B6B03F0800394
S32D000106A0002B0CBF00230123DBB2002B0FD04FF48053C4F20B034FF48052C4F20B02126B42F080021A637B6B11
S32D000106C84FF000021A604FF48053C4F20B035B6A03F48033002B0CBF00230123DBB2002B08D07B6B1B68002B9E
S32D000106F008D17B6B4FF001021A6003E07B6B4FF000021A607B6B1A68BB6B1A6047E0BB6B4FF01C021A60BB6B8A
S32D0001071803F104034FF004021A60BB6B03F108034FF41E721A6036E04FF00200FFF712FA4FF48053C4F20B0353
S32D000107401B6B03F4E003002B0CBF00230123DBB2002B0ED04FF48053C4F20B034FF48052C4F20B02126B42F4F2
S32D00010768E0021A634FF00403FB634FF48053C4F20B034FF48052C4F20B02126B42F032021A6308E040F6092303
S32D00010790FB6304E000BF02E000BF00E000BFFB6B184607F14807BD4680BD00BF80B489B000AF786039607B687F
S32D000107B87B6141F27C13C1F6FF733B613B69002B02D14FF0000381E03B691B68022B0BD03B691B68032B07D00F
S32D000107E03B691B68072B03D03B691B68082B0DD14FF48053C4F20B035B6A03F00403002B0CBF00230123DBB223
S32D00010808002BF1D13B68FB6156E0FB69B3F5007F28BF4FF40073FB60FB6803F103034FEA9303BB613CE04FF475
S32D000108308053C4F20B031B6B03F4E003002B0CBF00230123DBB2002B10D04FF48053C4F20B034FF48052C4F228
S32D000108580B02126B42F4E00242F020021A634FF0000333E04FF48053C4F20B035B6A03F40063002B14BF00238F
S32D000108800123DBB2002BF1D14FF48053C4F20B031B6A1A467B691A607B6903F104037B61BB6903F1FF33BB616D
S32D000108A8BB69002B0CBF00230123DBB2002BBAD1FA69FB68D31AFB61FB69002B0CBF00230123DBB2002BA0D1A4
S32D000108D04FF00103184607F12407BD4680BC704780B58EB000AFB9607A600246FA73BB7341F26813C1F6FF7370
S32D000108F87B63FB7B002B02D1BB7B002B02D14FF0040381E040F20843C1F6FF731B78DBB203F00103DBB2002B2F
S32D0001092002D04FF0030373E0BB68002B02D14FF000036DE07B6B1B7B002B03D17B684FEA43237B60BB7B012B54
S32D000109482CD14FF011033B754FF000037B757B68BB614FF001033B77BB7B3B6207F1140341F202301946FFF7BE
S32D0001097061FA0346002B14BF00230123DBB2002B3ED0B8684FF40071FFF710FF0346002B0CBF00230123DBB2BD
S32D00010998002B31D04FF00003BB732DE04FF012033B754FF000037B757B68BB614FF001033B77BB7B3B6207F192
S32D000109C0140341F202301946FFF734FA0346002B14BF00230123DBB2002B11D0BB7B4FEA4323B8681946FFF798
S32D000109E8E1FE0346002B0CBF00230123DBB2002B02D04FF00003BB73BB7B002B02D04FF0010301E04FF00003E8
S32D00010A10184607F13807BD4680BD00BF80B487B000AF786039607B68FB603B687B6155E07B69B3F5007F28BFB4
S32D00010A384FF400733B617A693B69D31A7B613B6903F103034FEA93033B613BE04FF48053C4F20B031B6B03F472
S32D00010A60E003002B0CBF00230123DBB2002B10D04FF48053C4F20B034FF48052C4F20B02126B42F4E00242F036
S32D00010A8810021A634FF0FF332EE04FF48053C4F20B035B6A03F48063002B14BF00230123DBB2002BF1D14FF4B6
S32D00010AB08053C4F20B03FA6812681A62FB6803F10403FB603B6903F1FF333B613B69002B0CBF00230123DBB29B
S32D00010AD8002BBBD17B69002B0CBF00230123DBB2002BA1D14FF00103184607F11C07BD4680BC704780B58EB0C8
S32D00010B0000AFB9607A600246FA73BB7341F26813C1F6FF737B63FB7B002B02D1BB7B002B02D14FF00403CAE0F4
S32D00010B2840F20843C1F6FF731B78DBB203F00103DBB2002B02D04FF00303BCE040F20843C1F6FF731B78DBB2B0
S32D00010B5003F00403002B0CBF00230123DBB2002B02D04FF00203AAE0BB68002B02D14FF00003A4E07B6B1B7B84
S32D00010B78002B03D17B684FEA43237B60BB7B012B2CD14FF018033B754FF000037B757B68BB614FF000033B7764
S32D00010BA0BB7B3B6207F1140341F202301946FFF741F90346002B14BF00230123DBB2002B3ED0B8684FF4007128
S32D00010BC8FFF728FF0346002B0CBF00230123DBB2002B31D04FF00003BB732DE04FF019033B754FF000037B75E8
S32D00010BF07B68BB614FF000033B77BB7B3B6207F1140341F202301946FFF714F90346002B14BF00230123DBB21F
S32D00010C18002B11D0BB7B4FEA4323B8681946FFF7F9FE0346002B0CBF00230123DBB2002B02D04FF00003BB73E0
S32D00010C404FF00D033B754FF000037B757B6B1B69BB614FF000033B774FF000033B6207F1140341F20230194628
S32D00010C68FFF7E4F80346002B0CBF00230123DBB2002B02D04FF001031DE07A6A48F20803CFF6D9731340002B83
S32D00010C9002D04FF0010312E07B6A03F4F853B3F5106F0CBF00230123DBB2002BC8D1BB7B002B02D04FF0010307
S32D00010CB801E04FF00003184607F13807BD4680BD80B58CB000AF0B463A600246FA71BB7141F26813C1F6FF7354
S32D00010CE0BB62FB79002B02D04FF004037AE04FF0010387F82F3040F20843C1F6FF731B78DBB203F00103DBB24C
S32D00010D08002B02D04FF0030368E0BB79032B5FD801A252F823F000BF310D01003B0D01004D0D01005F0D01008A
S32D00010D304FF0000387F82F3052E0BB6A9A683B681A604FF0000387F82F3049E03B684FF400721A804FF0000381
S32D00010D5887F82F3040E04FF009033B724FF000037B72BB6A1B69FB604FF000033B744FF000037B6107F1080331
S32D00010D8041F202301946FFF755F80346002B0CBF00230123DBB2002B02D04FF0010321E07B6A03F44003002B9F
S32D00010DA811D13B6A4FEA934303F07F0303F101027B6A4FEA132303F0030303F1FF3302FA03F23B681A604FF05A
S32D00010DD0000387F82F3003E04FF0040387F82F3097F82F30184607F13007BD4680BD00BF80B483B000AF034633
S32D00010DF8FB71FB79002B02D04FF0010305E040F20843C1F6FF731B78DBB2184607F10C07BD4680BC704700BFE3
S32D00010E2080B483B000AF78604FF4E043C4F204034FF4E042C4F2040202F5805202F13802126842F0010203F5D4
S32D00010E48805303F138031A604FF00003C4F204037A689A604FF00003C4F204034FF005025A604FF00003C4F22D
S32D00010E7004034FF00002C4F20402126842F001021A6000BF4FF00003C4F204031B6803F08003002B14BF00234E
S32D00010E980123DBB2002BF1D14FF00003C4F204034FF00002C4F20402126822F001021A6007F10C07BD4680BC3E
S32D00010EC0704700BF80B582B000AF786039607B68012B0AD13A684FF6FF739A4205D141F28830C1F6FF7000F010
S32D00010EE80FF807F10807BD4680BD00BF80B500AF4FF001004FF6FF71FFF7E0FF80BD00BF80B483B000AF786036
S32D00010F107B684FF000021A707B68184607F10C07BD4680BC704700BF80B582B000AF78607B681B7883F0010328
S32D00010F38DBB2002B36D04FF4E043C4F2040303F5805303F128034FF400621A604FF45043C4F204034FF4407218
S32D00010F601A624FF45043C4F204034FF440725A6241F28C33C1F6FF731B684FEAD372D3184FEA63034FF4304049
S32D00010F88C4F20E0019464FF46142FEF78DF84FF0640000F0ADF87B684FF001021A704FF0010301E04FF000036A
S32D00010FB0184607F10807BD4680BD00BF80B582B000AF7860F970BA707B704FF43040C4F20E004FF07F01FEF717
S32D00010FD88BF94FF43040C4F20E004FF00801FEF783F9FB784FF43040C4F20E001946FEF77BF9BB784FF430409E
S32D00011000C4F20E001946FEF773F97B784FF43040C4F20E001946FEF76BF94FF43040C4F20E004FF0FF01FEF770
S32D0001102863F907F10807BD4680BD00BF80B487B000AFF860B9607A60FA6844F6D353C1F26203A3FB02134FEA0C
S32D000110509312BB68D3187B61FA6844F6D353C1F26203A3FB02134FEA93134FF47A7101FB03F3D31AFB60FB68AB
S32D000110784FEAC33244F6D353C1F26203A3FB02134FEA93127B68D3183B613B694FEAD3337A69D3187B613B6977
S32D000110A04FEA43434FEA53433B614FF45043C4F203031B681A467B699A4211D34FF45043C4F203031B681A4669
S32D000110C87B699A420BD14FF45043C4F203035B681A463B699A4202D24FF0010301E04FF00003002BDDD107F11D
S32D000110F01C07BD4680BC704780B584B000AF78604FF45043C4F203031B68FB604FF45043C4F203035B68BB60E8
S32D000111187B681846F968BA68FFF788FF07F11007BD4680BD0000000080B584B000AFC7E900014FF45043C4F2C3
S32D0001114003031B68FB604FF45043C4F203035B68BB60D7E900010AA3D3E90023FBF710FB02460B461046194694
S32D00011168FBF7CCFD03461846F968BA68FFF75EFF07F11007BD4680BD0000000000408F4080B584B000AF4FF467
S32D000111905043C4F203031B68FB604FF45043C4F203035B68BB60F868FBF774FA02460B46C7E90023B868FBF755
S32D000111B86DFA02460B46104619464FF000024FF0804303F56003FBF701FC02460B46D7E90001FBF71FF902461A
S32D000111E00B46C7E90023D7E900231046194607F11007BD4680BD00BF80B483B000AF4FF45043C4F203031B68EB
S32D000112084FF47A7202FB03F37B604FF45043C4F203035B684FF47A7202FB03F34FEAD3337A68D3187B607B6879
S32D00011230184607F10C07BD4680BC704780B584B000AF78600B46FB704FF00B03FB73FA78FB7B786811461A464A
S32D0001125800F0ECF87B68184607F11007BD4680BD80B485B000AF78607B68A3F11003002B01DA03F11F034FEA34
S32D000112806313FB60FB68012B48D0022B00F08980002B40F0C9804FF46142CEF200024FF46143CEF20003D3F8E0
S32D000112A8803119467B68A3F110004FF01F03C8F200030340002B05DA03F1FF3363F01F0303F101034FF0010042
S32D000112D000FA03F30B43C2F880314FF46142CEF200024FF46143CEF200031B6819467B68A3F110004FF01F032A
S32D000112F8C8F200030340002B05DA03F1FF3363F01F0303F101034FF0010000FA03F30B43136085E04FF46142EE
S32D00011320CEF200024FF46143CEF20003D3F8843119467B68A3F110004FF01F03C8F200030340002B05DA03F16D
S32D00011348FF3363F01F0303F101034FF0010000FA03F30B43C2F884314FF46142CEF200024FF46143CEF2000398
S32D000113705B6819467B68A3F110004FF01F03C8F200030340002B05DA03F1FF3363F01F0303F101034FF0010067
S32D0001139800FA03F30B43536042E04FF46142CEF200024FF46143CEF20003D3F8883119467B68A3F110004FF018
S32D000113C01F03C8F200030340002B05DA03F1FF3363F01F0303F101034FF0010000FA03F30B43C2F888314FF40B
S32D000113E86142CEF200024FF46143CEF200039B6819467B68A3F110004FF01F03C8F200030340002B05DA03F17F
S32D00011410FF3363F01F0303F101034FF0010000FA03F30B43936000BF07F11407BD4680BC704700BF80B584B0AD
S32D0001143800AF786013460A46FA70BB707B68FA781A70BB78FB737B681B781A4648F20833C0F201039B5C042B19
S32D0001146000F2F68001A252F823F000BF81140100F51401006915010051160100DD1501004FF41043C4F2040369
S32D000114887A681278114648F24C32C0F2010252F82110FA7B4FEA024202F4702242F4887242F0030243F821202D
S32D000114B04FF47043C4F20F034FF47042C4F20F02526911467A681278104648F24C32C0F2010252F8202002F0D6
S32D000114D81F024FF0010000FA02F26FEA02020A405A614FF06700FFF7BBFEADE04FF42043C4F204037A68127883
S32D00011500114648F24C32C0F2010252F82110FA7B4FEA024202F4702242F4887242F0030243F821204FF240039C
S32D00011528C4F20F034FF24002C4F20F02526911467A681278104648F24C32C0F2010252F8202002F01F024FF065
S32D00011550010000FA02F26FEA02020A405A614FF06800FFF781FE73E04FF43043C4F204037A681278114648F23C
S32D000115784C32C0F2010252F82110FA7B4FEA024202F4702242F4887242F0030243F821204FF28003C4F20F03AD
S32D000115A04FF28002C4F20F02526911467A681278104648F24C32C0F2010252F8202002F01F024FF0010000FA7A
S32D000115C802F26FEA02020A405A614FF06900FFF747FE39E04FF45043C4F204037A681278114648F24C32C0F2E2
S32D000115F0010252F82110FA7B4FEA024202F4702242F4887242F0030243F821204FF47143C4F20F034FF471423C
S32D00011618C4F20F02526911467A681278104648F24C32C0F2010252F8202002F01F024FF0010000FA02F26FEA77
S32D0001164002020A405A614FF06B00FFF70DFE00BF07F11007BD4680BDB0B48BB000AF47F61873C0F2010307F1F5
S32D0001166804041D460FCD0FC495E80F0084E80F004FF000037B6248E04FF42043C4F20403D3F8A0301A467B6AA8
S32D000116904FEA830307F12800C31853F8243C4FF0010101FA03F31340002B0CBF00230123DBB2002B29D041F220
S32D000116B8B833C1F6FF737A6A53F8223003F1010141F2B833C1F6FF737A6A43F822104FF42043C4F204034FF43A
S32D000116E02042C4F20402D2F8A02011467A6A4FEA820207F12800821852F8242C4FF0010000FA02F20A40C3F8B4
S32D00011708A0207B6A03F101037B627B6A072BCCBF00230123DBB2002BAED107F12C07BD46B0BC7047B0B489B02A
S32D0001173000AF47F63873C0F2010307F104041D460FCD0FC495E8030084E803004FF00003FB6149E04FF43043BF
S32D00011758C4F20403D3F8A0301A46FB694FEA830307F12000C31853F81C3C4FF0010101FA03F31340002B0CBF76
S32D0001178000230123DBB2002B2AD0FB6903F1080241F2B833C1F6FF7353F8223003F1010141F2B833C1F6FF73BE
S32D000117A843F822104FF43043C4F204034FF43042C4F20402D2F8A0201146FA694FEA820207F12000821852F8C4
S32D000117D01C2C4FF0010000FA02F20A40C3F8A020FB6903F10103FB61FB69052BCCBF00230123DBB2002BADD15B
S32D000117F807F12407BD46B0BC704700BFB0B48DB000AF47F65073C0F201033C461D460FCD0FC40FCD0FC495E8F4
S32D00011820070084E807004FF00003FB6249E04FF41043C4F20403D3F8A0301A46FB6A4FEA830307F13000C318E2
S32D0001184853F8303C4FF0010101FA03F31340002B0CBF00230123DBB2002B2AD0FB6A03F10E0241F2B833C1F608
S32D00011870FF7353F8223003F1010141F2B833C1F6FF7343F822104FF41043C4F204034FF41042C4F20402D2F822
S32D00011898A0201146FA6A4FEA820207F13000821852F8302C4FF0010000FA02F20A40C3F8A020FB6A03F1010331
S32D000118C0FB62FB6A0A2BCCBF00230123DBB2002BADD107F13407BD46B0BC7047B0B487B000AF47F67C73C0F279
S32D000118E801033C461D460FCD0FC42B6823604FF000037B6149E04FF45043C4F20403D3F8A0301A467B694FEA31
S32D00011910830307F11800C31853F8183C4FF0010101FA03F31340002B0CBF00230123DBB2002B2AD07B6903F14C
S32D00011938190241F2B833C1F6FF7353F8223003F1010141F2B833C1F6FF7343F822104FF45043C4F204034FF401
S32D000119605042C4F20402D2F8A02011467A694FEA820207F11800821852F8182C4FF0010000FA02F20A40C3F81E
S32D00011988A0207B6903F101037B617B69042BCCBF00230123DBB2002BADD107F11C07BD46B0BC704780B483B0F5
S32D000119B000AF78607B681B781A4641F2B833C1F6FF7353F82230184607F10C07BD4680BC704700BF80B483B042
S32D000119D800AF78607B681B781A4641F2B833C1F6FF734FF0000143F8221007F10C07BD4680BC704780B483B027
S32D00011A0000AF78600B46FB707B68FA781A707B68184607F10C07BD4680BC70470000000080B586B000AF786061
S32D00011A287B681B781A4648F2CC33C0F2010353F822303B617B681B781A4648F22833C0F201039B5CFB733B6967
S32D00011A50DBB203F01F03DAB241F29833C1F6FF731A723B69DBB203F01F03DAB241F29833C1F6FF735A724FF47E
S32D00011A786143CEF200034FF01002C3F88820FB7B002B1ED14FF43040C4F2030041F29831C1F6FF7100F004FB16
S32D00011AA04FF43043C4F203031B6803F08003002B14BF00230123DBB2002BF1D14FF43043C4F203031B697B611B
S32D00011AC81DE04FF43040C4F20B0041F29831C1F6FF7100F0E5FA4FF43043C4F20B031B6803F08003002B14BF1B
S32D00011AF000230123DBB2002BF1D14FF43043C4F20B031B697B614FF46143CEF200034FF46142CEF20002D2F810
S32D00011B18882142F01002C3F888214FF46143CEF200034FF46142CEF20002926842F010029A607B694FEA034360
S32D00011B404FEA13431846FAF7A5FD02460B46104619460FA3D3E90023FAF712FE02460B46104619460CA3D3E95D
S32D00011B680023FAF733FF02460B4610461946FBF7E5F80346BB60BB68184607F11807BD4680BD00BFAFF30080CE
S32D00011B90A4703D0AD7A30A4000000000E0FFEF4080B586B000AF78607B681B781A4648F2CC33C0F2010353F8F7
S32D00011BB822303B617B681B781A4648F22833C0F201039B5CFB733B69DBB203F01F03DAB241F2A833C1F6FF7381
S32D00011BE01A723B69DBB203F01F03DAB241F2A833C1F6FF735A72FB7B002B1ED14FF43040C4F2030041F2A8316D
S32D00011C08C1F6FF7100F04CFA4FF43043C4F203031B6803F08003002B14BF00230123DBB2002BF1D14FF4304370
S32D00011C30C4F203031B697B611DE04FF43040C4F20B0041F2A831C1F6FF7100F02DFA4FF43043C4F20B031B68B1
S32D00011C5803F08003002B14BF00230123DBB2002BF1D14FF43043C4F20B031B697B617B69184607F11807BD46F2
S32D00011C8080BD00BF98B500AF41F29833C1F6FF734FF05C021A7041F29833C1F6FF734FF010025A7041F29833AF
S32D00011CA8C1F6FF7341F234225A8041F29833C1F6FF7345F278629A8041F29833C1F6FF734FF010029A7141F279
S32D00011CD09833C1F6FF734FF00702DA7141F29833C1F6FF734FF4C022DA6041F29833C1F6FF734FF01F021A72C5
S32D00011CF841F29833C1F6FF734FF01F025A724FF43040C4F2030041F29831C1F6FF7100F0C7F94FF43040C4F2C2
S32D00011D200B0041F29831C1F6FF7100F0BDF94FF43040C4F20B0000F011F94FF43040C4F2030000F00BF94FF4AF
S32D00011D483040C4F20B0041F29831C1F6FF7100F0A7F94FF43040C4F2030041F29831C1F6FF7100F09DF941F240
S32D00011D70A832C1F6FF7241F29833C1F6FF7314460FCB84E80F0041F2A833C1F6FF734FF05C021A7041F2A83300
S32D00011D98C1F6FF734FF00402DA7198BD80B500AF41F23C43C1F6FF731B6803F1010241F23C43C1F6FF731A6080
S32D00011DC000F04CF84FF4E043C4F203034FF00102C3F80C2180BD00BF80B500AF4FF4E043C4F203034FF0010230
S32D00011DE81A6048F2A060C0F2010000F023F84FF4E043C4F203034FF00302C3F808214FF46143CEF200034FF423
S32D00011E106142CEF20002D2F8882142F01002C3F888214FF46143CEF200034FF46142CEF20002926842F0100293
S32D00011E389A6080BD80B483B000AF78604FF4E043C4F203037A68C3F8002107F10C07BD4680BC704780B584B00C
S32D00011E6000AF41F23843C1F6FF731B68FB6029E0FB685B78FB71FB689B68184600F02EF80346BB71BB79002B96
S32D00011E8819D0FB685B68012B15DDFB689B681B69BB6008E0BB685B6803F10102BB685A60BB681B69BB60BB6872
S32D00011EB0002B0CBF00230123DBB2002BEED1FB68DB68FB60FB68002B0CBF00230123DBB2002BCDD107F1100749
S32D00011ED8BD4680BD80B584B000AF78607868FFF75BFE0346FB607B689B695B78FB72FB7A002B12D17B68DA6809
S32D00011F00FB689A420DDA7B689B694FF001025A707B685B6803F101027B685A604FF0010317E0FB7A012B12D1A1
S32D00011F287B689A68FB689A420DDD7B689B694FF000025A707B685B6803F101027B685A604FF0010301E04FF0ED
S32D00011F500003184607F11007BD4680BD80B485B000AF78607B681B6A23F040027B681A627B685B6A23F00B02DE
S32D00011F787B685A627B685B6A43F007027B685A627B685B6A43F080027B685A627B681B6803F08003002B14BF42
S32D00011FA000230123DBB2002BF4D17B685B6A03F04003002B0CBF00230123DBB2002B02D04FF0010369E04FF0DE
S32D00011FC80003FB817B68DB6CFB817B689B6C9AB2FB89D318FB817B685B6C9AB2FB89D318FB817B681B6C9AB20D
S32D00011FF0FB89D318FB817B68DB6B9AB2FB89D318FB817B689B6B9AB2FB89D318FB81FB894FEA5303FB81FB8944
S32D000120186FEA43436FEA5343FB81FA897B68DA624FF00003FB817B68DB6EFB817B689B6E9AB2FB89D318FB8124
S32D000120407B685B6E9AB2FB89D318FB817B681B6E9AB2FB89D318FB817B68DB6D9AB2FB89D318FB817B689B6D9E
S32D000120689AB2FB89D318FB81FB894FEA5303FB81FB896FEA43436FEA5343FB81FA897B681A637B685B6A23F017
S32D0001209080027B685A624FF00003184607F11407BD4680BC704700BF80B483B000AF786039603B681B781A467B
S32D000120B87B689A603B685B781A467B68DA603B685B881A467B689A613B689B881A467B68DA613B689B791A460A
S32D000120E07B681A623B68DB791A467B685A623B68DA687B681A653B681B7A1A467B681A603B685B7A1A467B6885
S32D000121085A6007F10C07BD4680BC704780B483B000AF78607B68184607F10C07BD4680BC704700BF80B582B097
S32D0001213000AF786039607B68012B0AD13A684FF6FF739A4205D141F24040C1F6FF70FFF7E1FF07F10807BD46B2
S32D0001215880BD00BF80B500AF4FF001004FF6FF71FFF7E0FF80BD00BF80B483B000AF78600B46FB707B68FA78B3
S32D000121801A707B684FF4FA725A807B6840F6C4129A807B68044A9A607B68184607F10C07BD4680BC704700BF05
S32D000121A8000080BF00000000F0B585B000AF786039604FF001031C4638684B49FBF7BAF80346002B02D14FF0CC
S32D000121D000031C46E3B2002B01D0454B3B604FF001031C4638684349FBF7C6F80346002B02D14FF000031C4653
S32D000121F8E3B2002B01D03D4B3B607B689B6818463968FBF78DF80346002B64D17B683A689A607B685E887B68D4
S32D000122209B881A467B685B88D31A1846FAF742FA02460B46104619462BA3D3E90023FAF7C9FB02460B4614462B
S32D000122481D463868FAF744FA02460B4620462946FAF792FA02460B4610461946FAF74EFD03469BB2F318FB81A3
S32D00012270FB897B73FB894FEA23233B734FF43040C4F20E004FF07F01FDF732F84FF43040C4F20E004FF005010C
S32D00012298FDF72AF87B681B784FF43040C4F20E001946FDF721F83B7B4FF43040C4F20E001946FDF719F87B7B21
S32D000122C04FF43040C4F20E001946FDF711F84FF43040C4F20E004FF0FF01FDF709F807F11407BD46F0BD00BFEF
S32D000122E80000000000806640000000000000344380B582B000AF78604FF43043C4F204034FF48072DA604FF417
S32D000123102043C4F204034FF480729A644FF42043C4F204034FF480721A644FF42043C4F204034FF480725A64DF
S32D000123384FF42043C4F204034FF48072DA604FF28003C4F20F034FF28002C4F20F02526942F008025A614FF29B
S32D000123604003C4F20F034FF24002C4F20F02526942F480225A614FF24003C4F20F034FF24002C4F20F0252695A
S32D0001238842F480325A614FF24003C4F20F034FF24002C4F20F02526942F400325A614FF24003C4F20F034FF282
S32D000123B04002C4F20F02126842F008021A604FF24003C4F20F034FF24002C4F20F02526942F008025A614FF23C
S32D000123D88003C4F20F034FF28002C4F20F02126842F008021A604FF42043C4F204034FF480725A624FF42043D7
S32D00012400C4F204034FF480721A624FF43043C4F204034FF480721A614FF43043C4F204034FF480725A614FF476
S32D000124283043C4F204034FF480729A614FF43043C4F204034FF48072DA614FF43043C4F204034FF480721A631D
S32D000124504FF43043C4F204034FF480725A634FF43043C4F204034FF480729A634FF43043C4F204034FF48072AB
S32D00012478DA634FF43043C4F204034FF480721A644FF43043C4F204034FF480725A644FF43043C4F204034FF4B6
S32D000124A080729A644FF43043C4F204034FF48072DA644FF44043C4F204034FF480721A604FF44043C4F2040382
S32D000124C84FF480729A604FF44043C4F204034FF48072DA604FF44043C4F204034FF480721A614FF24003C4F257
S32D000124F00F034FF24002C4F20F02526942F440725A614FF28002C4F20F024FF28003C4F20F035B6919464FF289
S32D00012518F003C0F20F030B4353614FF2C003C4F20F034FF2C002C4F20F02526942F01D025A6178684FF0E2017C
S32D0001254000F0DEFE78684FF01D0101F01DF878684FF0020101F018F878684FF0040101F013F878684FF0E0011A
S32D0001256800F0CAFE78684FF0010101F009F84FF06400FEF7BDFD78684FF0E00100F0BCFE78684FF0030100F06A
S32D00012590FBFF78684FF0010100F0B2FE4FF00100FEF7AAFD78684FF0E60100F0A9FE78684FF0010100F0E8FFF0
S32D000125B878684FF0A00100F0E3FF78684FF0FF0100F0DEFF78684FF0B00100F095FE78684FF01C0100F0D4FF24
S32D000125E078684FF00F0100F0CFFF78684FF0010100F0CAFF78684FF03F0100F0C5FF78684FF0000100F0C0FF23
S32D0001260878684FF0EF0100F0BBFF78684FF0000100F0B6FF78684FF0B40100F06DFE78684FF0010100F0ACFF3A
S32D0001263078684FF0990100F0A7FF78684FF0000100F0A2FF78684FF0450100F09DFF78684FF0020100F098FFE1
S32D0001265878684FF0000100F093FF78684FF0000100F08EFF78684FF0000100F089FF78684FF0B60100F040FE78
S32D0001268078684FF0010100F07FFF78684FF0090100F07AFF78684FF0000100F075FF78684FF00E0100F070FFF9
S32D000126A878684FF0020100F06BFF78684FF0000100F066FF78684FF0000100F061FF78684FF0BA0100F018FEC2
S32D000126D078684FF00F0100F057FF4FF06400FEF70BFD78684FF03A0100F00AFE78684FF0600100F049FF7868DC
S32D000126F84FF02A0100F000FE78684FF0000100F03FFF78684FF0000100F03AFF78684FF0010100F035FF78689F
S32D000127204FF03F0100F030FF78684FF02B0100F0E7FD78684FF0000100F026FF78684FF0000100F021FF786888
S32D000127484FF0000100F01CFF78684FF0EF0100F017FF78684FF0360100F0CEFD78684FF0000100F00DFF7868F5
S32D000127704FF0F00100F0C4FD78684FF0040100F003FF78684FF0B80100F0BAFD78684FF00F0100F0F9FE7868CE
S32D000127984FF0010100F0F4FE4FF24003C4F20F034FF24002C4F20F02126842F008021A604FF06400FEF79CFCF9
S32D000127C078684FF0360100F09BFD78684FF0000100F0DAFE78684FF0F00100F091FD78684FF0040100F0D0FEB4
S32D000127E841F24440C1F6FF704FF0010100F03EFA41F24440C1F6FF704FF06F014FF01E0200F0B2F841F2444040
S32D00012810C1F6FF704FF056014FF0AF0200F028F941F24440C1F6FF704FF0000100F080FA41F24440C1F6FF7078
S32D0001283847F69071C0F201014FF001024FF0010300F09AFA78684FF0290100F055FD4FF06400FEF74DFC78682A
S32D000128604FF0BE0100F04CFD78684FF00E0100F08BFE78684FF0F00100F086FE78684FF0010100F081FE786877
S32D000128884FF0000100F07CFE78684FF0000100F077FE78684FF00F0100F072FE786800F097FA41F24440C1F694
S32D000128B0FF704FF0010100F03BFA41F24440C1F6FF704FF0000100F00BFA07F10807BD4680BD00BF80B582B0A5
S32D000128D800AF78607B684FF00002DA617B684FF001021A627B684FF00E025A607B684FF01A029A607B684FF004
S32D0001290000025A617B684FF000029A617B684FF4A072DA607B684FF0F0021A617B684FF000021A70786801F04C
S32D000129287FFD7B68184607F10807BD4680BD00BF80B582B000AF786041F28843C1F6FF731B7883F00103DBB211
S32D00012950002B09D041F28843C1F6FF734FF001021A707868FFF7C8FC07F10807BD4680BD80B58AB002AFF86008
S32D00012978B9607A604FF07E030093F868B9687A684FF0620301F0EEF840F24E733B614FF00003FB615BE04FF065
S32D000129A00003BB6143E0FB6903F1010240F20C43C1F6FF739B5C002B09D14FF0FF03FB754FF0FF03BB754FF064
S32D000129C8FF037B751CE0FB6903F1010240F20C43C1F6FF739B5C012B09D14FF0D403FB754FF00003BB754FF0B9
S32D000129F026037B7508E04FF0B503FB754FF0BA03BB754FF0B0037B75F97DBA7D7B7DF86800F00EF90246FB689B
S32D00012A18DA61F86801F004FDF86801F0A1FBBB6903F10103BB6140F20C43C1F6FF73FA699B181B781A46BB6906
S32D00012A409A42D4BF00230123DBB2002BABD1FB6903F10203FB61FA693B699A42ACBF00230123DBB2002B9AD10C
S32D00012A6807F12007BD4680BD80B58AB002AFF860B9607A604FF027030093F868B9687A684FF0950301F06EF8E8
S32D00012A9040F2E6333B614FF00003FB615BE04FF00003BB6143E0FB6903F1010240F65C33C1F6FF739B5C002B6B
S32D00012AB809D14FF0FF03FB754FF0FF03BB754FF0FF037B751CE0FB6903F1010240F65C33C1F6FF739B5C012B5A
S32D00012AE009D14FF00003FB754FF00003BB754FF000037B7508E04FF0D403FB754FF00003BB754FF026037B755F
S32D00012B08F97DBA7D7B7DF86800F08EF80246FB68DA61F86801F084FCF86801F021FBBB6903F10103BB6140F691
S32D00012B305C33C1F6FF73FA699B181B781A46BB699A42D4BF00230123DBB2002BABD1FB6903F10203FB61FA698B
